{
  "contractName": "ContractLG",
  "abi": [
    {
      "inputs": [],
      "payable": false,
      "stateMutability": "nonpayable",
      "type": "constructor"
    },
    {
      "constant": true,
      "inputs": [],
      "name": "viewStatus",
      "outputs": [
        {
          "name": "",
          "type": "uint256"
        }
      ],
      "payable": false,
      "stateMutability": "view",
      "type": "function"
    },
    {
      "constant": true,
      "inputs": [],
      "name": "viewTitle",
      "outputs": [
        {
          "name": "",
          "type": "string"
        }
      ],
      "payable": false,
      "stateMutability": "view",
      "type": "function"
    },
    {
      "constant": true,
      "inputs": [],
      "name": "viewValidity",
      "outputs": [
        {
          "name": "",
          "type": "string"
        },
        {
          "name": "",
          "type": "string"
        },
        {
          "name": "",
          "type": "string"
        }
      ],
      "payable": false,
      "stateMutability": "view",
      "type": "function"
    },
    {
      "constant": true,
      "inputs": [],
      "name": "viewAddress",
      "outputs": [
        {
          "name": "",
          "type": "string"
        },
        {
          "name": "",
          "type": "string"
        }
      ],
      "payable": false,
      "stateMutability": "view",
      "type": "function"
    },
    {
      "constant": true,
      "inputs": [],
      "name": "viewDescription",
      "outputs": [
        {
          "name": "",
          "type": "string"
        }
      ],
      "payable": false,
      "stateMutability": "view",
      "type": "function"
    }
  ],
  "bytecode": "0x6060604052341561000f57600080fd5b606060405190810160405280603781526020017f436f6e747261637420666f72204c616e64696e6720476561727320666f72204281526020017f37373720466c6565742077697468696e20457469686164000000000000000000815250600090805190602001906100819291906102f2565b5060076001819055506040805190810160405280600981526020017f32362d352d313936310000000000000000000000000000000000000000000000815250600290805190602001906100d59291906102f2565b506040805190810160405280600881526020017f3130207965617273000000000000000000000000000000000000000000000000815250600390805190602001906101219291906102f2565b506040805190810160405280600781526020017f35207965617273000000000000000000000000000000000000000000000000008152506004908051906020019061016d9291906102f2565b50608060405190810160405280604181526020017f457469686164204169727761797320502e4a2e532e432e2c504f42203335353681526020017f362c4162752044686162692c556e69746564204172616220456d69726174657381526020017f2e00000000000000000000000000000000000000000000000000000000000000815250600590805190602001906102069291906102f2565b50606060405190810160405280603281526020017f537461722047656172732c204765617273205374726565742c20502e4f20426f81526020017f78203136323733382c204d616368696e65730000000000000000000000000000815250600690805190602001906102799291906102f2565b50606060405190810160405280602981526020017f54686973206973207468652066697273742076657273696f6e206f662074686581526020017f20636f6e74726163740000000000000000000000000000000000000000000000815250600790805190602001906102ec9291906102f2565b50610397565b828054600181600116156101000203166002900490600052602060002090601f016020900481019282601f1061033357805160ff1916838001178555610361565b82800160010185558215610361579182015b82811115610360578251825591602001919060010190610345565b5b50905061036e9190610372565b5090565b61039491905b80821115610390576000816000905550600101610378565b5090565b90565b610902806103a66000396000f30060606040526004361061006d576000357c0100000000000000000000000000000000000000000000000000000000900463ffffffff16806318b04c8a146100725780635c932d121461016c57806368835114146101fa578063ac60a26914610288578063e51f7e2d146102b1575b600080fd5b341561007d57600080fd5b610085610417565b604051808060200180602001838103835285818151815260200191508051906020019080838360005b838110156100c95780820151818401526020810190506100ae565b50505050905090810190601f1680156100f65780820380516001836020036101000a031916815260200191505b50838103825284818151815260200191508051906020019080838360005b8381101561012f578082015181840152602081019050610114565b50505050905090810190601f16801561015c5780820380516001836020036101000a031916815260200191505b5094505050505060405180910390f35b341561017757600080fd5b61017f61056b565b6040518080602001828103825283818151815260200191508051906020019080838360005b838110156101bf5780820151818401526020810190506101a4565b50505050905090810190601f1680156101ec5780820380516001836020036101000a031916815260200191505b509250505060405180910390f35b341561020557600080fd5b61020d610613565b6040518080602001828103825283818151815260200191508051906020019080838360005b8381101561024d578082015181840152602081019050610232565b50505050905090810190601f16801561027a5780820380516001836020036101000a031916815260200191505b509250505060405180910390f35b341561029357600080fd5b61029b6106bb565b6040518082815260200191505060405180910390f35b34156102bc57600080fd5b6102c46106c5565b60405180806020018060200180602001848103845287818151815260200191508051906020019080838360005b8381101561030c5780820151818401526020810190506102f1565b50505050905090810190601f1680156103395780820380516001836020036101000a031916815260200191505b50848103835286818151815260200191508051906020019080838360005b83811015610372578082015181840152602081019050610357565b50505050905090810190601f16801561039f5780820380516001836020036101000a031916815260200191505b50848103825285818151815260200191508051906020019080838360005b838110156103d85780820151818401526020810190506103bd565b50505050905090810190601f1680156104055780820380516001836020036101000a031916815260200191505b50965050505050505060405180910390f35b61041f6108c2565b6104276108c2565b60056006818054600181600116156101000203166002900480601f0160208091040260200160405190810160405280929190818152602001828054600181600116156101000203166002900480156104c05780601f10610495576101008083540402835291602001916104c0565b820191906000526020600020905b8154815290600101906020018083116104a357829003601f168201915b50505050509150808054600181600116156101000203166002900480601f01602080910402602001604051908101604052809291908181526020018280546001816001161561010002031660029004801561055c5780601f106105315761010080835404028352916020019161055c565b820191906000526020600020905b81548152906001019060200180831161053f57829003601f168201915b50505050509050915091509091565b6105736108c2565b60008054600181600116156101000203166002900480601f0160208091040260200160405190810160405280929190818152602001828054600181600116156101000203166002900480156106095780601f106105de57610100808354040283529160200191610609565b820191906000526020600020905b8154815290600101906020018083116105ec57829003601f168201915b5050505050905090565b61061b6108c2565b60078054600181600116156101000203166002900480601f0160208091040260200160405190810160405280929190818152602001828054600181600116156101000203166002900480156106b15780601f10610686576101008083540402835291602001916106b1565b820191906000526020600020905b81548152906001019060200180831161069457829003601f168201915b5050505050905090565b6000600154905090565b6106cd6108c2565b6106d56108c2565b6106dd6108c2565b600260036004828054600181600116156101000203166002900480601f0160208091040260200160405190810160405280929190818152602001828054600181600116156101000203166002900480156107785780601f1061074d57610100808354040283529160200191610778565b820191906000526020600020905b81548152906001019060200180831161075b57829003601f168201915b50505050509250818054600181600116156101000203166002900480601f0160208091040260200160405190810160405280929190818152602001828054600181600116156101000203166002900480156108145780601f106107e957610100808354040283529160200191610814565b820191906000526020600020905b8154815290600101906020018083116107f757829003601f168201915b50505050509150808054600181600116156101000203166002900480601f0160208091040260200160405190810160405280929190818152602001828054600181600116156101000203166002900480156108b05780601f10610885576101008083540402835291602001916108b0565b820191906000526020600020905b81548152906001019060200180831161089357829003601f168201915b50505050509050925092509250909192565b6020604051908101604052806000815250905600a165627a7a72305820889508d64158be89018808466162a039108179b47a374055768861c530b832640029",
  "source": "pragma solidity ^0.4.18;\n\ncontract ContractLG {\n    \n    string title;\n    uint status;\n\n    // contract details\n    string commencementDate;\n    string tenure;\n    string warranty;\n    \n    string eyAddress;\n    string partyAddress;\n\n    string contractDescription;\n\n    // constructor\n    function ContractLG() public {\n        title = \"Contract for Landing Gears for B777 Fleet within Etihad\";\n        status = 7;\n        commencementDate = \"26-5-1961\";\n        tenure = \"10 years\";\n        warranty = \"5 years\";\n        eyAddress = \"Etihad Airways P.J.S.C.,POB 35566,Abu Dhabi,United Arab Emirates.\";\n        partyAddress = \"Star Gears, Gears Street, P.O Box 162738, Machines\";\n        contractDescription = \"This is the first version of the contract\";\n    }\n    \n    function viewStatus() public view returns (uint) {\n        return status;\n    }\n    function viewTitle() public view returns (string) {\n        return title;\n    }\n    function viewValidity() public view returns (string, string, string) {\n        return (commencementDate, tenure, warranty);\n    }\n    function viewAddress() public view returns (string, string) {\n        return (eyAddress, partyAddress);\n    }\n    function viewDescription() public view returns (string) {\n        return contractDescription;\n    }\n}",
  "sourcePath": "/Users/subir/truffle/ContractLG/contracts/ContractLG.sol",
  "compiler": {
    "name": "solc",
    "version": "0.4.19+commit.c4cbbb05.Emscripten.clang"
  },
  "schemaVersion": "2.0.0",
  "updatedAt": "2018-04-01T10:24:08.739Z"
}